{
  "_format": "hh-sol-artifact-1",
  "contractName": "Wallet",
  "sourceName": "contracts/Wallet.sol",
  "abi": [
    {
      "anonymous": false,
      "inputs": [
        {
          "indexed": true,
          "internalType": "address",
          "name": "from",
          "type": "address"
        },
        {
          "indexed": false,
          "internalType": "uint256",
          "name": "amount",
          "type": "uint256"
        }
      ],
      "name": "Deposit",
      "type": "event"
    },
    {
      "anonymous": false,
      "inputs": [
        {
          "indexed": true,
          "internalType": "address",
          "name": "to",
          "type": "address"
        },
        {
          "indexed": false,
          "internalType": "uint256",
          "name": "amount",
          "type": "uint256"
        }
      ],
      "name": "Withdraw",
      "type": "event"
    },
    {
      "stateMutability": "payable",
      "type": "fallback"
    },
    {
      "inputs": [],
      "name": "getBalance",
      "outputs": [
        {
          "internalType": "uint256",
          "name": "",
          "type": "uint256"
        }
      ],
      "stateMutability": "view",
      "type": "function"
    },
    {
      "inputs": [
        {
          "internalType": "address",
          "name": "user",
          "type": "address"
        }
      ],
      "name": "getBalanceOf",
      "outputs": [
        {
          "internalType": "uint256",
          "name": "",
          "type": "uint256"
        }
      ],
      "stateMutability": "view",
      "type": "function"
    },
    {
      "inputs": [
        {
          "internalType": "address payable",
          "name": "_to",
          "type": "address"
        },
        {
          "internalType": "uint256",
          "name": "_amount",
          "type": "uint256"
        }
      ],
      "name": "withdrawMoney",
      "outputs": [],
      "stateMutability": "nonpayable",
      "type": "function"
    },
    {
      "stateMutability": "payable",
      "type": "receive"
    }
  ],
  "bytecode": "0x6080604052348015600f57600080fd5b506107128061001f6000396000f3fe6080604052600436106100385760003560e01c806312065fe0146100e35780639b96eece1461010e578063f274c8971461014b576100e1565b366100e157346000803373ffffffffffffffffffffffffffffffffffffffff1673ffffffffffffffffffffffffffffffffffffffff168152602001908152602001600020600082825461008b919061040f565b925050819055503373ffffffffffffffffffffffffffffffffffffffff167fe1fffcc4923d04b559f4d29a8bfc6cda04eb5b0d3c460751c2402c5c5cc9109c346040516100d89190610452565b60405180910390a25b005b3480156100ef57600080fd5b506100f8610174565b6040516101059190610452565b60405180910390f35b34801561011a57600080fd5b50610135600480360381019061013091906104d0565b6101ba565b6040516101429190610452565b60405180910390f35b34801561015757600080fd5b50610172600480360381019061016d9190610567565b610202565b005b60008060003373ffffffffffffffffffffffffffffffffffffffff1673ffffffffffffffffffffffffffffffffffffffff16815260200190815260200160002054905090565b60008060008373ffffffffffffffffffffffffffffffffffffffff1673ffffffffffffffffffffffffffffffffffffffff168152602001908152602001600020549050919050565b3373ffffffffffffffffffffffffffffffffffffffff168273ffffffffffffffffffffffffffffffffffffffff1614610270576040517f08c379a00000000000000000000000000000000000000000000000000000000081526004016102679061062a565b60405180910390fd5b6000803373ffffffffffffffffffffffffffffffffffffffff1673ffffffffffffffffffffffffffffffffffffffff168152602001908152602001600020548111156102f1576040517f08c379a00000000000000000000000000000000000000000000000000000000081526004016102e8906106bc565b60405180910390fd5b806000803373ffffffffffffffffffffffffffffffffffffffff1673ffffffffffffffffffffffffffffffffffffffff168152602001908152602001600020600082825403925050819055508173ffffffffffffffffffffffffffffffffffffffff166108fc829081150290604051600060405180830381858888f19350505050158015610383573d6000803e3d6000fd5b508173ffffffffffffffffffffffffffffffffffffffff167f884edad9ce6fa2440d8a54cc123490eb96d2768479d49ff9c7366125a9424364826040516103ca9190610452565b60405180910390a25050565b6000819050919050565b7f4e487b7100000000000000000000000000000000000000000000000000000000600052601160045260246000fd5b600061041a826103d6565b9150610425836103d6565b925082820190508082111561043d5761043c6103e0565b5b92915050565b61044c816103d6565b82525050565b60006020820190506104676000830184610443565b92915050565b600080fd5b600073ffffffffffffffffffffffffffffffffffffffff82169050919050565b600061049d82610472565b9050919050565b6104ad81610492565b81146104b857600080fd5b50565b6000813590506104ca816104a4565b92915050565b6000602082840312156104e6576104e561046d565b5b60006104f4848285016104bb565b91505092915050565b600061050882610472565b9050919050565b610518816104fd565b811461052357600080fd5b50565b6000813590506105358161050f565b92915050565b610544816103d6565b811461054f57600080fd5b50565b6000813590506105618161053b565b92915050565b6000806040838503121561057e5761057d61046d565b5b600061058c85828601610526565b925050602061059d85828601610552565b9150509250929050565b600082825260208201905092915050565b7f52657472616974206175746f7269736520756e697175656d656e74207665727360008201527f20766f7472652070726f70726520616472657373650000000000000000000000602082015250565b60006106146035836105a7565b915061061f826105b8565b604082019050919050565b6000602082019050818103600083015261064381610607565b9050919050565b7f50617320617373657a20646520666f6e64732064616e73206c6520636f6d707460008201527f6500000000000000000000000000000000000000000000000000000000000000602082015250565b60006106a66021836105a7565b91506106b18261064a565b604082019050919050565b600060208201905081810360008301526106d581610699565b905091905056fea2646970667358221220190c3a21a828b62ee602bd85ce255b5eac790aed27b8c73ef8c92ee7e960341a64736f6c634300081c0033",
  "linkReferences": {},
  "deployedLinkReferences": {}
}