{
  "_format": "hh-sol-artifact-1",
  "contractName": "Wallet",
  "sourceName": "contracts/Wallet.sol",
  "abi": [
    {
      "stateMutability": "payable",
      "type": "fallback"
    },
    {
      "inputs": [],
      "name": "getBalance",
      "outputs": [
        {
          "internalType": "uint256",
          "name": "",
          "type": "uint256"
        }
      ],
      "stateMutability": "view",
      "type": "function"
    },
    {
      "inputs": [
        {
          "internalType": "address payable",
          "name": "_to",
          "type": "address"
        },
        {
          "internalType": "uint256",
          "name": "_amount",
          "type": "uint256"
        }
      ],
      "name": "withdrawMoney",
      "outputs": [],
      "stateMutability": "nonpayable",
      "type": "function"
    },
    {
      "stateMutability": "payable",
      "type": "receive"
    }
  ],
  "bytecode": "0x6080604052348015600f57600080fd5b5061047a8061001f6000396000f3fe60806040526004361061002d5760003560e01c806312065fe014610089578063f274c897146100b457610087565b3661008757346000803373ffffffffffffffffffffffffffffffffffffffff1673ffffffffffffffffffffffffffffffffffffffff16815260200190815260200160002060008282546100809190610274565b9250508190555b005b34801561009557600080fd5b5061009e6100dd565b6040516100ab91906102b7565b60405180910390f35b3480156100c057600080fd5b506100db60048036038101906100d69190610361565b610123565b005b60008060003373ffffffffffffffffffffffffffffffffffffffff1673ffffffffffffffffffffffffffffffffffffffff16815260200190815260200160002054905090565b6000803373ffffffffffffffffffffffffffffffffffffffff1673ffffffffffffffffffffffffffffffffffffffff168152602001908152602001600020548111156101a4576040517f08c379a000000000000000000000000000000000000000000000000000000000815260040161019b90610424565b60405180910390fd5b806000803373ffffffffffffffffffffffffffffffffffffffff1673ffffffffffffffffffffffffffffffffffffffff168152602001908152602001600020600082825403925050819055508173ffffffffffffffffffffffffffffffffffffffff166108fc829081150290604051600060405180830381858888f19350505050158015610236573d6000803e3d6000fd5b505050565b6000819050919050565b7f4e487b7100000000000000000000000000000000000000000000000000000000600052601160045260246000fd5b600061027f8261023b565b915061028a8361023b565b92508282019050808211156102a2576102a1610245565b5b92915050565b6102b18161023b565b82525050565b60006020820190506102cc60008301846102a8565b92915050565b600080fd5b600073ffffffffffffffffffffffffffffffffffffffff82169050919050565b6000610302826102d7565b9050919050565b610312816102f7565b811461031d57600080fd5b50565b60008135905061032f81610309565b92915050565b61033e8161023b565b811461034957600080fd5b50565b60008135905061035b81610335565b92915050565b60008060408385031215610378576103776102d2565b5b600061038685828601610320565b92505060206103978582860161034c565b9150509250929050565b600082825260208201905092915050565b7f50617320617373657a20646520666f6e64732064616e73206c6520636f6d707460008201527f6500000000000000000000000000000000000000000000000000000000000000602082015250565b600061040e6021836103a1565b9150610419826103b2565b604082019050919050565b6000602082019050818103600083015261043d81610401565b905091905056fea2646970667358221220520e5f97ab64510416162ab17a8daed18817bbb7219cd21e1b06cc9e18e977a664736f6c634300081c0033",
  "linkReferences": {},
  "deployedLinkReferences": {}
}